:1000460010C4EA611A03530069006C00690063007A
:100056006F006E0020004C00610062007300100308
:1000660055005300420020004100500049000A0399
:0C00760031003200330034000F80010024
:10000300203C1022002400260028002A002C002E69
:1000130000300032003400360038003A003C003E25
:1000230000400042004400460048004A004C004E95
:0F00330000500052005400560058005A005C0064
:100BF10053D9BF120E93900046E493FE740193FF04
:100C0100900048E493FC740193FD9007B674FFF0E3
:100C1100A37400F0A37464F0A374FFF0A37400F054
:100C2100A37474F090007EE4939007BCF090007F71
:100C3100E4939007BDF0900080E493FB74019390DE
:100C410007BECBF0A3EBF07BFF7A00794A120412C6
:0E0C510043A90243EF02120FE1120F9A80FE38
:0A0FE10043A60CE4F5E175E240229E
:100F1900A2AFE433FFC2AFAC02AD018D828C837501
:100F29008F0375B7A575B7F1E4F0F58FEF24FF923C
:010F3900AF08
:010F3A002294
:100DC400755E00755F00A2AFE433F55DC2AFAE029D
:100DD400AF01758F01E4FDFC75B7A575B7F1855FAB
:100DE40082855E83E08F828E83F0055FE55F70020B
:100DF400055E0FBF00010E0DBD00010CE4B505D862
:0D0E0400ECB402D4E4F58FE55D24FF92AF5D
:010E110022BE
:100B7F00E50D24F8600F24F8601224F0600A241C9D
:100B8F00705F02065A020956750D0822C3E551958A
:100B9F000CFFE550950BFED3EF9400EE941040063A
:100BAF007E107F0080008E568F57AB59AA5AA95BD3
:100BBF00AD57AC56120549EF250CF50CEE350BF57C
:100BCF000BE557255BF55BE556355AF55AE5585455
:100BDF00077002B2A3E50CB50F07E50BB50E02C205
:020BEF00A3223F
:03008B000209F275
:1009F200C0E0C0F0C083C082C0D075D000C000C0CB
:0D0A020001C002C003C004C005C006C0074B
:100A0F00120FC7EF30E003750D01EF30E403750DE2
:100A1F0002EF30E11FE50DB40803750D20E50DB4AD
:100A2F001012E50CB55109E50BB550047E0280029A
:100A3F007E108E0DEF30E20DE50DB402047E0480C2
:100A4F00027E088E0DEF30E503750D01EF30E303E5
:060A5F00750D02120B7F71
:100A6500D007D006D005D004D003D002D001D000E5
:0B0A7500D0D0D082D083D0F0D0E0328F
:10065A007B007A0079527D031208A77508008F097A
:10066A00E552705DF55C90200293F50AD3E50A9491
:10067A00407480948140047F408002AF0A8F0A75DB
:10068A005202902001E493F553902000E493F5542C
:10069A00E554FE7C00E42553F551EC3EF5507B0011
:1006AA007A0079527D031205498E0B8F0C750D1055
:1006BA00E4F50BF50C7559FF85105A85115BD2A329
:1006CA0022E554FE7C00E42553F54DEC3EF54CE55D
:1006DA004DAE4C7806CEC313CE13D8F9F50AD3E53E
:1006EA004D9400E54C94504004750D8022E54D541C
:1006FA003F6002050A900000E554F0A3E553F0A319
:10070A00E50AF07B007A207900120F19120DC4E471
:0E071A00F55CF555F508F509D2A2750D08221B
:10095600C3E54D9509FFE54C9508FED3EF9440EEAF
:10096600940040087C007E007F4080008E4E8F4FB2
:10097600E55575F040A42400F9740035F0FA7B01C2
:10098600AD4F1208A7EF2509F509E43508F5080566
:1009960055E5556408600CE509654D7004E5086584
:1009A6004C7039E55C25E02410F8E6FE08E6AA0658
:1009B600F97BFF120F19E55C25E02410F8E6FE0826
:1009C600E6AA06F9120DC4055CB2A2E4F555755205
:1009D600FFFB7A0079527D01FC120549E509B54D08
:0C09E6000AE508B54C05750D02C2A222FE
:100E59001201100100000040C4100000000001024E
:100E690003010902200001010080FA0904000002BF
:100E7900FF0000000705020240000007058202404A
:0A0E8900000004030904010000004A
:100412009007AFEEF0A3EFF09007B3EBF0A3EAF092
:10042200A3E9F0E4900791F0900791E0FF900E5954
:1004320093FE74402FF582E43407F583EEF09007C3
:1004420091E004F0E0B412E0E4900791F09007919B
:10045200E0FF900E6B93FE74522FF582E43407F5A1
:1004620083EEF0900791E004F0E0B420E09007AF53
:10047200E0FEA3E0900748F0EEA3F0A3EDF0ECA3BA
:10048200F090077274FFF0A3740EF0A3748BF090D7
:1004920007B3E0F9A3E0FAA3E0900775C9F0A3EA75
:1004A200F0A3E9F09007B6E0F9A3E0FAA3E0900721
:1004B20078C9F0A3EAF0A3E9F09007B9E0F9A3E064
:1004C200FAA3E090077BC9F0A3EAF0A3E9F0900752
:1004D200BCE0FFC394FA500590075AEFF09007BDB5
:1004E200E0900759F09007BEE0FEA3E090074CF0C1
:1004F200EEA3F0E59620E7FB759601759708E59661
:1005020020E7FB75960775970FE59620E7FB759632
:100512000975970EE59620E7FB75960B759707759B
:10052200D7E0120FD5E4900793F0900792F090076E
:1005320094F0900786F043E602D2AFE59620E7FBFF
:070542007596017597012277
:100ECB009007867402F0E59620E7FB7596017597FF
:100EDB0001E490078EF0A37403F0A3F0E490079362
:070EEB00F090079204F022D1
:10008E00E59620E7FB75960EE4F597E59620E7FBDF
:10009E00759691E59620E7FB90079EE597F0E0FFB9
:1000AE0030E210E59620E7FB759611E4F597900780
:1000BE008EF022EF30E410E59620E7FB7596117571
:1000CE009780E490078EF090078EE060030201BFE8
:1000DE0090079EE020E0030201BF7596204396C074
:1000EE00E4900791F0E59620E7FB900791E0247EDF
:1000FE00F582E43407F583E597F0900791E004F07C
:10010E00E0B407E1E59620E7FBE4F596900791E071
:10011E00247EF582E43407F583E597F0900781E0BD
:10012E00FE900780E07C002400FFEC3E900795F0E7
:10013E00A3EFF0900785E0FE900784E02400FFEC2B
:10014E003E900797F0A3EFF090077FE0B40C0050BD
:10015E005D900166F828287302018A02018F020160
:10016E00940201990201BC02019E0201A30201BC8C
:10017E000201A80201AD0201B20201B7120B0C80FE
:10018E0030120D15802B1207288026120D6D80213E
:10019E00120F5D801C1207F58017120E12801212BC
:1001AE000CBB800D120EF28008120FB38003120FDB
:1001BE007D90078EE0640160030202C090079E747A
:1001CE0002F0C390078DE0944090078CE0940040BD
:1001DE0061E59620E7FB759620E4900791F0900775
:1001EE0091E0FFC394405022900787E0FBA3E0FA12
:1001FE00A3E0F98F82758300120C78F597E59620AF
:10020E00E7FB900791E004F080D4900788E475F046
:10021E0040120CA590078DE024C0F090078CE034BE
:10022E00FFF090078BE02440F090078AE03400F056
:10023E008052E59620E7FB759620E4900791F090AA
:10024E000791E0FFD390078DE09F90078CE094001C
:10025E004026900787E0FBA3E0FAA3E0F990079110
:10026E00E0F582758300120C78F597E59620E7FB92
:10027E00900791E004F080C790079EE04408F0E4F8
:10028E0090078EF0900797E0FEA3E0FF90078AE0BC
:10029E00B50611A3E0B5070C90079EE04408F0E404
:1002AE0090078EF0E59620E7FB75961190079EE07D
:0302BE00F597228F
:100F7D00E59620E7FB75960EE4F597E59620E7FBE1
:0D0F8D0075961175972090078E7404F02260
:100B0C0090077EE0247F6007146006240270488002
:100B1C002D90078FE0B40309900782E0B4020280A5
:100B2C000E900790E0B40316900782E0B4820F9009
:100B3C00078774FFF0A3740EF0A3748F800D9007D9
:100B4C008774FFF0A3740EF0A37491F090078CE4FB
:100B5C00F0A37402F08003120F7D90078EE0640402
:100B6C006010120FB390078E7401F0E490078AF0B6
:030B7C00A3F022C1
:100D1500900780E07041900782E0B4021DE59620BF
:100D2500E7FB75960E759702E59620E7FB75961419
:100D3500759780E490078FF08020E59620E7FB7596
:100D4500960E759702E59620E7FB75961175974007
:100D5500E4900790F08003120F7DE59620E7FB7580
:080D6500960EE4F597020FB3AE
:10072800900796E020E0030207BE900794E030E0CF
:100738000854FEF04402F08007900794E054FDF05E
:10074800E59620E7FB75960E759702E59620E7FB80
:10075800759614759710E59620E7FB7596117597B1
:1007680008E59620E7FB759694E59620E7FB900749
:100778009DE597F0E020E4E9E59620E7FB759614FF
:10078800759710E59620E7FB759691E59620E7FBAF
:1007980090079DE597F0E020E3E9E59620E7FB75F3
:1007A80096117597089007927408F0900794E0FFE7
:1007B80030E1034401F0900795E0FCA3E0FD30E14F
:1007C8000D9007867406F0900792E04410F0ED3023
:1007D800E20D9007867404F0900792E04420F0E55B
:0D07E8009620E7FB75960EE4F597020FB31F
:100D6D00900780E07040900782E0B4021BE596206A
:100D7D00E7FB75960E759702E59620E7FB759614C1
:100D8D0075972090078F8019E59620E7FB75960ED5
:100D9D00759702E59620E7FB7596117597109007EC
:100DAD00907403F08003120F7DE59620E7FB759696
:070DBD000EE4F597020FB3ED
:100F5D00E59620E7FBE4F596900780E0FFF597EF27
:100F6D0090078660057403F080037402F0020FB3DE
:1007F500900781E024FE601B14603B240270699021
:1008050007877401F0A37407F0A37440F0900740C4
:10081500E0804A9007877401F0A37407F0A374522F
:10082500F0900755E0FE900754E07C002400FFECB3
:100835003E90078C802C900780E075F003A424720D
:10084500F582E43407F583E0FBA3E0FAA3E0F99031
:100855000787EBF0A3EAF0A3E9F0120C5FFF90071E
:100865008CE4F0A3EFF08003120F7D90078CE0FE7F
:10087500A3E0FF900797E0FCA3E0FDC39FEC9E502B
:100885000890078CECF0A3EDF090078EE06404600F
:1008950010120FB390078E7401F0E490078AF0A34D
:0208A500F0223F
:100E1200900786E0FFB40414A374FFF0A3740EF0ED
:100E2200A3748FF090078CE4F0A304F0EFB40316E0
:100E320090078774FFF0A3740EF0A37491F09007EB
:100E42008CE4F0A304F0120FB390078E7401F0E467
:070E520090078AF0A3F022D3
:100CBB00900780E0D394004042900792E04440F0CC
:100CCB009007867404F0E490078FF0A3F0E596206C
:100CDB00E7FB75960E759702E59620E7FB75961266
:100CEB00759784E59620E7FB759615759780E596C5
:100CFB0020E7FB75960EE4F597800C90078674033E
:0A0D0B00F090078FF0A3F0020FB381
:100EF20090078774FFF0A3740EF0A37491F090072B
:100F02008CE4F0A304F0120FB390078E7401F0E4A6
:070F120090078AF0A3F02212
:100FB30090078EE06404600BE59620E7FB759611BD
:040FC30075974022BC
:030043000202C1F5
:1002C100C0E0C0F0C083C082C0D075D000C000C003
:1002D10001C002C003C004C005C006C0079007A149
:1002E100E596F0E59620E7FB75968EE59620E7FB0F
:1002F1009007A2E597F0E59620E7FB759686E596CF
:1003010020E7FB900799E597F0E030E30BE59620B5
:10031100E7FB75960B759707900799E030E203129A
:100321000ECB900799E030E014900786E0FF64045B
:100331006004EFB40607900792E04480F0E5962050
:10034100E7FB759682E59620E7FB900799E597F024
:10035100E030E00312008E900799E030E22AE59642
:1003610020E7FB75960E759702E59620E7FB7596DB
:1003710091E59620E7FB90079AE597F0E05403702A
:1003810007900792E04402F0E59620E7FB7596841A
:10039100E59620E7FB900799E597F0E030E229E543
:1003A1009620E7FB75960E759702E59620E7FB759B
:1003B1009694E59620E7FB90079AE597F0E030E008
:1003C10007900792E04404F0E59620E7FB75960E4E
:1003D1009007A2E0F597E59620E7FB9007A1E59647
:1003E100F0E59620E7FB900794E030E00990079252
:1003F100E06003120F3BD007D006D005D004D00334
:10040100D002D001D000D0D0D082D083D0F0D0E0C3
:0104110032B8
:100E9300E5B964E0602E53A90FC0A943B280E5A968
:100EA3005407D394014003E4F5A9E4F5B943B980A9
:100EB300E4D5E0FD43B9C0E5B930E5FBD0E0B402C9
:080EC3000343A90253A90F2209
:0E0FC700900792E0FFE4F022900792E0FF22F4
:1008A700900786E0B40606EDD3944040037F00220C
:1008B700E59620E7FB75960E759702E59620E7FB10
:1008C700759694E59620E7FB90079CE597F0E02066
:1008D700E003020953E59620E7FB759696E5962017
:1008E700E7FB900793E597F0E0FFEDC39F5006AE57
:1008F70005AF068000900793EFF053E6FDE59620DD
:10090700E7FB7596E2900793E06025FEEB60063003
:10091700E70F7F0022E59620E7FBA79709DEF68021
:100927000F89828A83E59620E7FBE597F0A3DEF53A
:10093700E59620E7FBE4F596E59620E7FB75961428
:0F094700E4F59743E602900793E0FF227F00223A
:10054900900786E0B4060DED4C6009D3ED9400ECFC
:1005590094104004E4FEFF2253E6FDE490079FF067
:10056900A3F090079BF089828A83C083C082900799
:100579009BE030E00302064AE59620E7FB75960EFC
:10058900759702E59620E7FB759691E59620E7FBBE
:1005990090079BE597F0E030E020E59620E7FB75B2
:1005A900960EE4F597E59620E7FB759691E596207A
:1005B900E7FB90079BE597F080B4C3ED9440EC947A
:1005C900009007A0E0401B2440F090079FE0340012
:1005D900F074C02DFD74FF3CFCE490079BF078405B
:1005E90080132DF090079FE03CF090079B7401F079
:1005F900A805E4FCFDE59620E7FB759622D082D09C
:1006090083E8602BEB601130E71AE59620E7FBE4FD
:1006190093F597A3D8F48017E59620E7FB87970908
:10062900D8F6800BE59620E7FBE0F597A3D8F5C04F
:1006390083C082E59620E7FB75961175970102053F
:1006490077D082D08343E60290079FE0FEA3E0FFC4
:01065900227E
:100F9A00900794E04401F0900792E0600BE59620F8
:090FAA00E7FB75960B75970F2209
:0C0FD500E59620E7FB75960F75978922C2
:100F3B00D007D007D007D006D005D004D003D002FD
:100F4B00D001D000D0D0D082D083D0F0D0E002003E
:020F5B008B22E7
:03000000020A8071
:0C0A8000787FE4F6D8FD75815F020AC79C
:100C5F00BB010689828A83E0225002E722BBFE0293
:090C6F00E32289828A83E49322C6
:100C7800BB010CE58229F582E5833AF583E0225031
:100C880006E92582F8E622BBFE06E92582F8E2227B
:0D0C9800E58229F582E5833AF583E4932295
:100CA500C5F0F8A3E028F0C5F0F8E58215827002DA
:060CB5001583E038F02277
:100A8C00020BF1E493A3F8E493A34003F68001F284
:100A9C0008DFF48029E493A3F85407240CC8C3336B
:100AAC00C4540F4420C8834004F456800146F6DF3A
:100ABC00E4800B0102040810204080900003E47EC7
:100ACC00019360BCA3FF543F30E509541FFEE4932F
:100ADC00A360010ECF54C025E060A840B8E493A3F6
:100AEC00FAE493A3F8E493A3C8C582C8CAC583CA21
:100AFC00F0A3C8C582C8CAC583CADFE9DEE780BED9
:0100420000BD
:00000001FF
