:100CE8001201000200000040C410030000000000D0
:100CF800000109022000010100800F090400000220
:100D080000000000070581024000050705020240B7
:020D18000005D4
:100D720053D9BF120D88120D3C120BB9120DA2D21B
:060D8200AF120D9680FE89
:100D3C007F6443B203E4F5B943B980AE071FEE708C
:0C0D4C00FA43B9C0E5B930E5FB43A90249
:010D58002278
:040DA20043EF0222F7
:100BB900759601759708E59620E7FB759607759771
:100BC9000FE59620E7FB75960975970FE59620E7DF
:100BD900FB75960B759704E59620E7FB75D7C0431F
:100BE900D72075960F759780E59620E7FB43E602B7
:010BF90022D9
:0C0D9600759601E4F597E59620E7FB2236
:0E0D880043A60CC2A2C2A3E4F5E175E240222C
:100BFA00E5184517700BE51A45197005E527B40283
:100C0A0005755E028025E4F596851697E59620E738
:100C1A00FBE5277007E5166003752701E527B40190
:0F0C2A0007E5167003752701E4F55E855E382235
:100C3900E51A4519700DE5276009B40109E518455C
:100C4900176003755E02E513541F24FE6004240235
:100C59008013E5164515700BAF18AE171209528FA0
:0C0C69005E80058000755E02855E38220A
:100C7500E51A4519700DE5276009B40109E5184520
:100C8500176003755E02E513541F24FE60042402F9
:100C95008013E5164515700BAF18AE171209FD8FB9
:0C0CA5005E80058000755E02855E3822CE
:100CB100E51845177018E51A45197012E5277002F5
:100CC100800C900CF9E493FFE516D39F4005755E07
:100CD100028010E51670057527018007AF1612090D
:070CE100A88F5E855E38223A
:010DA600222A
:1007A800E51645157015E51A64024519700DE5271B
:1007B8006009B4010BE51845176005755E028052A3
:1007C800E513541F14601B14601F2402702FE518D2
:1007D800451760028027E4F53D85293CE52A423C1F
:1007E800801EE4F53CF53D8017E4F53CF53DAF1877
:1007F800AE17120D59BF0308433C018003755E0212
:10080800755E01753900753A00753B3C75340075A5
:060818003502855E382266
:10081E00E51524FE6025047062756200756312D3BF
:10082E00E563951AE56295194006851962851A6386
:10083E007539FF753A0C753BE8803D900CF9E493E1
:10084E00FFE516D39F4005755E02802F900CFCE4E9
:10085E0093F553A3E493F552855262855363D3E522
:10086E0063951AE56295194006851962851A6375B6
:10087E0039FF753A0C753BFA755E018562348563F6
:04088E0035855E3816
:010892002243
:100AE900E51A640145197010E5184517700AE516ED
:100AF90045157004E5277005755E028020E527B469
:100B0900010FE4F53CF53DF539753A00753B3C803C
:100B1900097539FF753A0C753BFF755E017534002F
:070B2900753501855E3822DD
:100B7600E51645157022E51A64014519701AE52730
:100B8600640260028012E52B24FFFFE434FFFED3EB
:100B9600E5189FE5179E4005755E028012753900BF
:100BA600753A0085313B753400753501755E0185F2
:030BB6005E382284
:1009520075968EE59620E7FBAC9775960EEF54EFF1
:10096200F597E59620E7FBEE702DEF24FE60162446
:10097200817024759611759710E59620E7FB750D29
:1009820003E4FD8014759614759720E59620E7FB25
:10099200752003E4FD80027D0275960E8C97E59624
:0509A20020E7FBAF059A
:0109A700222D
:1009FD0075968EE59620E7FBAC9775960EEF54EF46
:100A0D00F597E59620E7FBEE702BEF24FE6015249D
:100A1D00817022759611759740E59620E7FBE4F5F8
:100A2D000DFD8013759614759780E59620E7FBE410
:100A3D00F520FD80027D0275960E8C97E59620E7D8
:030A4D00FBAF05F7
:010A50002283
:100D5900EE7011EF24FE600824817008AD0D800645
:080D6900AD2080027D02AF0500
:010D7100225F
:0209A8008F526C
:1009AA00E4F5537BFF7A0C79FA8B2D8A2E892F90E6
:1009BA00000512005F655260057553028032AB2D47
:1009CA00AA2EA92F90000412005FF52B752C017B2B
:1009DA00007A007930900002E412009E900001E44F
:1009EA0012009EE412008C120731752702855226E6
:0209FA00AF53F9
:0109FC0022D8
:10073100E4FF75968EE59620E7FBAE9790000212D6
:10074100005F705675960E759701E59620E7FB756B
:1007510096127597A0E59620E7FBE4F509F50AF5F1
:100761000B750C40750881F50D75960E759702E5B0
:100771009620E7FB759615759780E59620E7FBE4D3
:10078100F51CF51DF51E751F40751B02F5207596AC
:100791000EF597E59630E70480F97F0275960E8E87
:0607A10097E59620E7FB3E
:0107A700222F
:0A0893008C568D578B588A59895AEC
:10089D00E55745566050EF2420543FF5964396C0DA
:1008AD00E4FFFEE55724FFFDE55634FFFCC3EF9D45
:1008BD00EE9C501BE59620E7FBAB58AA59A95A8F21
:1008CD00828E83E59712009E0FBF00010E80D4E546
:1008DD009620E7FBAB58AA59A95A8F828E83E597CC
:0608ED0012009EE4F596E6
:0108F30022E2
:0A0B30008C598D5A8B5B8A5C895D3D
:100B3A00E55A45596035EF2420FFE59620E7FBEF9B
:100B4A00543FF596E4FFFEC3EF955AEE9559501BB4
:100B5A00AB5BAA5CA95D8F828E8312005FF597E575
:0B0B6A009620E7FB0FBF00010E80DCAF
:010B7500225D
:10000300203C64FF1400FF1600FF1800FF1A00FFD6
:100013001C00FF1E00FF2000FF2200FF2400FF261C
:1000230000FF2800FF2A00FF2C00FF2E00FF3000F6
:0F003300FF3200FF3400FF3600FF3800FF3A00B5
:030043000205664D
:10056600C0E0C0F0C083C082C0D075D000C000C05B
:0D05760001C002C003C004C005C006C007DC
:10058300759686E59620E7FBAF97759682E59620EC
:10059300E7FB85974E759684E59620E7FB85974F95
:1005A300EF30E206120A9F753F01E54E30E0031279
:1005B30001F0E54E30E11AE53FB40803753F20E54D
:1005C3003FB4100DE549B53E047F0280027F108FD2
:1005D3003FE54F30E2167B007A00791B120404E5F5
:0F05E3003FB402047F0480027F088F3F12060D91
:1005F200D007D006D005D004D003D002D001D0005D
:0B060200D0D0D082D083D0F0D0E03206
:1001F000E4F55075960EF597E59620E7FB75969118
:10020000E59620E7FBAF97EF30E4117596117597EF
:1002100080E59620E7FBE4F538753F02EF30E21108
:10022000759611E4F597E59620E7FBE4F538753F00
:1002300002EF20E0030202E27B007A0079137D08DE
:100240007C00E4FF12089385185085171885501715
:10025000851650851516855015851A5085191A85ED
:100260005019E51354F02480603424807058E5144C
:1002700014601A24FE601124FA601724FE6018240A
:10028000067043120BFA8041120C39803C120C7537
:100290008037120CB18032120DA6802D8028E51413
:1002A00024FA601124FE601224FE6013240A7014E4
:1002B0001207A8801412081E800F120AE9800A1281
:1002C0000B7680058000753802755040E538B40221
:1002D00006435020E4F538759611855097E5962031
:1002E000E7FBE4F550E53864017058D3E5359440F8
:1002F000E5349400500F853551E4F534F53543501D
:1003000008F538800F75514074C02535F53574FFF8
:100310003534F534E551FD7C00AB39AA3AA93BE40C
:10032000FF120B307E00E53B2551F9EE353A853959
:1003300039F53A893B435002759611855097E596F9
:0303400020E7FBB8
:010343002297
:060404008B508A51895261
:10040A00E4FF75960E120046F597E59620E7FB7510
:10041A009694E59620E7FBAE97759695E59620E7C4
:10042A00FB859755AB50AA51A95290000512005F5F
:10043A0064036076EE30E60B759614759780E59640
:10044A0020E7FBEE30E063759696E59620E7FBAF72
:10045A0097EF755300F554759697E59620E7FBAF2D
:10046A0097EFFEEE4253E53FB402087B007A00792B
:10047A00428010E54875F040A42400F9740035F074
:10048A00FA7B01AD54AC537F0212089375960EABFA
:10049A0050AA51A952120046F597E59620E7FB7536
:0A04AA009614E4F597E59620E7FBB1
:0104B4002225
:060344007B007A0079083D
:06034A008B508A5189521C
:1003500075960E120046F597E59620E7FB75969187
:10036000E59620E7FBAF97759692E59620E7FB852B
:100370009758AB50AA51A95290000512005F640330
:100380007003020403EF30E50B759611759740E595
:100390009620E7FBEF20E06BAB50AA51A9529000EA
:1003A00001E5568557F01200F8AB53AA54A955C081
:1003B00003C002C001AB50AA51A95290000612011D
:1003C00055AB50AA51A952120046FF9000011200ED
:1003D000C0FDACF0900006120125120B30C3E546BB
:1003E0009557F546E5459556F545E557254CF54CA9
:1003F000E556354BF54B0549759611759701E59610
:0304000020E7FBF7
:0104030022D6
:100A9F00E4FFF550755100755226FEAB500552E537
:100AAF0052AA517002055114F9E412008C0EBE0DBA
:100ABF00EAE4F527F528F52AF538F533F5367537D5
:100ACF0040750D03F509F50A752003F51CF51D7525
:090ADF0096018F97E59620E7FBD4
:010AE80022EB
:100D1A00A2AFE433FFC2AFAC02AD018D828C837502
:100D2A008F0375B7A575B7F1E4F0F58FEF24FF923D
:010D3A00AF09
:010D3B002295
:100A5100755100755200A2AFE433F550C2AFAE023A
:100A6100AF01758F01E4FDFC75B7A575B7F185522E
:100A710082855183E08F828E83F00552E5527002A8
:100A810005510FBF00010E0DBD00010CE4B505D8E5
:0D0A9100ECB402D4E4F58FE55024FF92AFE1
:010A9E002235
:10060D00E53F1470030206A41470030206A424FA35
:10061D00600F24F8601224F0600A241C7076020426
:10062D00B50208F4753F0822D3E5469440E545949C
:10063D0000403F854A53854B54854C557556007582
:10064D005740120344D3E5469440E54594004011CC
:10065D00854A53854B54854C5575560075574080CA
:10066D0020854A53854B54854C55854556854657AF
:10067D00800F854A53854B54854C55854556854687
:10068D0057120344E54954077002B2A3E549B53E3C
:08069D0006C2A322753F802272
:1004B500E5427058F54D90120293F53EE53ED39412
:1004C500A040047FA08002AF3E8F3E75420290128D
:1004D50001E493F543901200E493F54475530075D8
:1004E5005400755542755600755703120344753F00
:1004F50010E4F5498540458541467864860308E65C
:10050500FA08E68B4A8A4BF54CD2A322E544FE7CD9
:1005150000E42543F541EC3EF540E541AE40780663
:10052500CEC313CE13D8F9F53ED394A04004753F3E
:100535008022E541543F6002053E900000E544F00D
:10054500A3E543F0A3E53EF07BFF7A127900120D97
:100555001A120A51E4F54DF548F547D2A2753F0840
:010565002273
:1008F40005470548E54864086006E547653E7043DA
:10090400E54D75F003A42464F8860308E6FA08E6C6
:10091400F9120D1AE54D75F003A42464F886030852
:10092400E6FA08E6F9120A51054DB2A2E4F5487553
:1009340042FFF553755400755542F556755701FB42
:0E094400120346E547B53E05753F02C2A222EA
:030000000206A550
:0C06A500787FE4F6D8FD75819F0206EC1A
:10004600BB010689828A83E0225002E722BBFE02B8
:09005600E32289828A83E49322EB
:10005F00BB010CE58229F582E5833AF583E0225056
:10006F0006E92582F8E622BBFE06E92582F8E222A0
:0D007F00E58229F582E5833AF583E49322BA
:10008C00BB010689828A83F0225002F722BBFE0153
:02009C00F3224D
:10009E00F8BB010DE58229F582E5833AF583E8F098
:1000AE00225006E92582C8F622BBFE05E92582C844
:0200BE00F2222C
:1000C000BB0110E58229F582E5833AF583E0F5F07E
:1000D000A3E0225009E92582F886F008E622BBFE5B
:1000E0000AE92582F8E2F5F008E222E5832AF583A1
:0800F000E993F5F0A3E9932266
:1000F800F8BB0111E58229F582E5833AF583E8F03A
:10010800E5F0A3F0225009E92582C8F608A6F022F6
:0D011800BBFE09E92582C8F2E5F008F222DD
:10012500BB010DE58229F582E5833AF5830201C01D
:100135005007E92582F80201AEBBFE07E92582F8E2
:100145000201D2E58229F582E5833AF5830201E4CD
:10015500BB0120E58229F582E5833AF583D0F0D00D
:10016500E0F8D0E0F9D0E0FAD0E0FBE8C0E0C0F07C
:100175000201C95018E92582F8D083D082D0E0F970
:10018500D0E0FAD0E0FBC082C0830201B7BBFE1805
:10019500E92582F8D083D082D0E0F9D0E0FAD0E02A
:0901A500FBC082C0830201DB22D1
:1006B100020D72E493A3F8E493A34003F68001F2E0
:1006C10008DFF48029E493A3F85407240CC8C3334A
:1006D100C4540F4420C8834004F456800146F6DF19
:1006E100E4800B0102040810204080900003E47EA6
:1006F100019360BCA3FF543F30E509541FFEE4930E
:10070100A360010ECF54C025E060A840B8E493A3D4
:10071100FAE493A3F8E493A3C8C582C8CAC583CAFF
:10072100F0A3C8C582C8CAC583CADFE9DEE780BEB7
:0100420000BD
:0901AE00E6FB08E6FA08E6F92276
:0901B700EBF608EAF608E9F6226D
:0901C000E0FBA3E0FAA3E0F92240
:0901C900EBF0A3EAF0A3E9F02237
:0901D200E2FB08E2FA08E2F9225E
:0901DB00EBF208EAF208E9F22255
:0C01E400E493FB740193FA740293F92277
:00000001FF
